{
  "contractName": "BridgedNFTToken",
  "abi": [
    {
      "inputs": [
        {
          "internalType": "address",
          "name": "_ethTokenAddr",
          "type": "address"
        },
        {
          "internalType": "string",
          "name": "name",
          "type": "string"
        },
        {
          "internalType": "string",
          "name": "symbol",
          "type": "string"
        },
        {
          "internalType": "string",
          "name": "baseURI",
          "type": "string"
        }
      ],
      "payable": false,
      "stateMutability": "nonpayable",
      "type": "constructor"
    },
    {
      "anonymous": false,
      "inputs": [
        {
          "indexed": true,
          "internalType": "address",
          "name": "owner",
          "type": "address"
        },
        {
          "indexed": true,
          "internalType": "address",
          "name": "approved",
          "type": "address"
        },
        {
          "indexed": true,
          "internalType": "uint256",
          "name": "tokenId",
          "type": "uint256"
        }
      ],
      "name": "Approval",
      "type": "event"
    },
    {
      "anonymous": false,
      "inputs": [
        {
          "indexed": true,
          "internalType": "address",
          "name": "owner",
          "type": "address"
        },
        {
          "indexed": true,
          "internalType": "address",
          "name": "operator",
          "type": "address"
        },
        {
          "indexed": false,
          "internalType": "bool",
          "name": "approved",
          "type": "bool"
        }
      ],
      "name": "ApprovalForAll",
      "type": "event"
    },
    {
      "anonymous": false,
      "inputs": [
        {
          "indexed": true,
          "internalType": "address",
          "name": "account",
          "type": "address"
        }
      ],
      "name": "MinterAdded",
      "type": "event"
    },
    {
      "anonymous": false,
      "inputs": [
        {
          "indexed": true,
          "internalType": "address",
          "name": "account",
          "type": "address"
        }
      ],
      "name": "MinterRemoved",
      "type": "event"
    },
    {
      "anonymous": false,
      "inputs": [
        {
          "indexed": true,
          "internalType": "address",
          "name": "from",
          "type": "address"
        },
        {
          "indexed": true,
          "internalType": "address",
          "name": "to",
          "type": "address"
        },
        {
          "indexed": true,
          "internalType": "uint256",
          "name": "tokenId",
          "type": "uint256"
        }
      ],
      "name": "Transfer",
      "type": "event"
    },
    {
      "constant": false,
      "inputs": [
        {
          "internalType": "address",
          "name": "account",
          "type": "address"
        }
      ],
      "name": "addMinter",
      "outputs": [],
      "payable": false,
      "stateMutability": "nonpayable",
      "type": "function"
    },
    {
      "constant": false,
      "inputs": [
        {
          "internalType": "address",
          "name": "to",
          "type": "address"
        },
        {
          "internalType": "uint256",
          "name": "tokenId",
          "type": "uint256"
        }
      ],
      "name": "approve",
      "outputs": [],
      "payable": false,
      "stateMutability": "nonpayable",
      "type": "function"
    },
    {
      "constant": true,
      "inputs": [
        {
          "internalType": "address",
          "name": "owner",
          "type": "address"
        }
      ],
      "name": "balanceOf",
      "outputs": [
        {
          "internalType": "uint256",
          "name": "",
          "type": "uint256"
        }
      ],
      "payable": false,
      "stateMutability": "view",
      "type": "function"
    },
    {
      "constant": true,
      "inputs": [],
      "name": "baseURI",
      "outputs": [
        {
          "internalType": "string",
          "name": "",
          "type": "string"
        }
      ],
      "payable": false,
      "stateMutability": "view",
      "type": "function"
    },
    {
      "constant": false,
      "inputs": [
        {
          "internalType": "uint256",
          "name": "tokenId",
          "type": "uint256"
        }
      ],
      "name": "burn",
      "outputs": [],
      "payable": false,
      "stateMutability": "nonpayable",
      "type": "function"
    },
    {
      "constant": true,
      "inputs": [],
      "name": "counter",
      "outputs": [
        {
          "internalType": "uint256",
          "name": "",
          "type": "uint256"
        }
      ],
      "payable": false,
      "stateMutability": "view",
      "type": "function"
    },
    {
      "constant": true,
      "inputs": [],
      "name": "ethTokenAddr",
      "outputs": [
        {
          "internalType": "address",
          "name": "",
          "type": "address"
        }
      ],
      "payable": false,
      "stateMutability": "view",
      "type": "function"
    },
    {
      "constant": true,
      "inputs": [
        {
          "internalType": "uint256",
          "name": "tokenId",
          "type": "uint256"
        }
      ],
      "name": "getApproved",
      "outputs": [
        {
          "internalType": "address",
          "name": "",
          "type": "address"
        }
      ],
      "payable": false,
      "stateMutability": "view",
      "type": "function"
    },
    {
      "constant": true,
      "inputs": [
        {
          "internalType": "address",
          "name": "owner",
          "type": "address"
        },
        {
          "internalType": "address",
          "name": "operator",
          "type": "address"
        }
      ],
      "name": "isApprovedForAll",
      "outputs": [
        {
          "internalType": "bool",
          "name": "",
          "type": "bool"
        }
      ],
      "payable": false,
      "stateMutability": "view",
      "type": "function"
    },
    {
      "constant": true,
      "inputs": [
        {
          "internalType": "address",
          "name": "account",
          "type": "address"
        }
      ],
      "name": "isMinter",
      "outputs": [
        {
          "internalType": "bool",
          "name": "",
          "type": "bool"
        }
      ],
      "payable": false,
      "stateMutability": "view",
      "type": "function"
    },
    {
      "constant": false,
      "inputs": [
        {
          "internalType": "address",
          "name": "to",
          "type": "address"
        },
        {
          "internalType": "uint256",
          "name": "tokenId",
          "type": "uint256"
        }
      ],
      "name": "mint",
      "outputs": [
        {
          "internalType": "bool",
          "name": "",
          "type": "bool"
        }
      ],
      "payable": false,
      "stateMutability": "nonpayable",
      "type": "function"
    },
    {
      "constant": true,
      "inputs": [],
      "name": "name",
      "outputs": [
        {
          "internalType": "string",
          "name": "",
          "type": "string"
        }
      ],
      "payable": false,
      "stateMutability": "view",
      "type": "function"
    },
    {
      "constant": true,
      "inputs": [
        {
          "internalType": "uint256",
          "name": "tokenId",
          "type": "uint256"
        }
      ],
      "name": "ownerOf",
      "outputs": [
        {
          "internalType": "address",
          "name": "",
          "type": "address"
        }
      ],
      "payable": false,
      "stateMutability": "view",
      "type": "function"
    },
    {
      "constant": false,
      "inputs": [],
      "name": "renounceMinter",
      "outputs": [],
      "payable": false,
      "stateMutability": "nonpayable",
      "type": "function"
    },
    {
      "constant": false,
      "inputs": [
        {
          "internalType": "address",
          "name": "to",
          "type": "address"
        },
        {
          "internalType": "uint256",
          "name": "tokenId",
          "type": "uint256"
        },
        {
          "internalType": "bytes",
          "name": "_data",
          "type": "bytes"
        }
      ],
      "name": "safeMint",
      "outputs": [
        {
          "internalType": "bool",
          "name": "",
          "type": "bool"
        }
      ],
      "payable": false,
      "stateMutability": "nonpayable",
      "type": "function"
    },
    {
      "constant": false,
      "inputs": [
        {
          "internalType": "address",
          "name": "to",
          "type": "address"
        },
        {
          "internalType": "uint256",
          "name": "tokenId",
          "type": "uint256"
        }
      ],
      "name": "safeMint",
      "outputs": [
        {
          "internalType": "bool",
          "name": "",
          "type": "bool"
        }
      ],
      "payable": false,
      "stateMutability": "nonpayable",
      "type": "function"
    },
    {
      "constant": false,
      "inputs": [
        {
          "internalType": "address",
          "name": "from",
          "type": "address"
        },
        {
          "internalType": "address",
          "name": "to",
          "type": "address"
        },
        {
          "internalType": "uint256",
          "name": "tokenId",
          "type": "uint256"
        }
      ],
      "name": "safeTransferFrom",
      "outputs": [],
      "payable": false,
      "stateMutability": "nonpayable",
      "type": "function"
    },
    {
      "constant": false,
      "inputs": [
        {
          "internalType": "address",
          "name": "from",
          "type": "address"
        },
        {
          "internalType": "address",
          "name": "to",
          "type": "address"
        },
        {
          "internalType": "uint256",
          "name": "tokenId",
          "type": "uint256"
        },
        {
          "internalType": "bytes",
          "name": "_data",
          "type": "bytes"
        }
      ],
      "name": "safeTransferFrom",
      "outputs": [],
      "payable": false,
      "stateMutability": "nonpayable",
      "type": "function"
    },
    {
      "constant": false,
      "inputs": [
        {
          "internalType": "address",
          "name": "to",
          "type": "address"
        },
        {
          "internalType": "bool",
          "name": "approved",
          "type": "bool"
        }
      ],
      "name": "setApprovalForAll",
      "outputs": [],
      "payable": false,
      "stateMutability": "nonpayable",
      "type": "function"
    },
    {
      "constant": true,
      "inputs": [
        {
          "internalType": "bytes4",
          "name": "interfaceId",
          "type": "bytes4"
        }
      ],
      "name": "supportsInterface",
      "outputs": [
        {
          "internalType": "bool",
          "name": "",
          "type": "bool"
        }
      ],
      "payable": false,
      "stateMutability": "view",
      "type": "function"
    },
    {
      "constant": true,
      "inputs": [],
      "name": "symbol",
      "outputs": [
        {
          "internalType": "string",
          "name": "",
          "type": "string"
        }
      ],
      "payable": false,
      "stateMutability": "view",
      "type": "function"
    },
    {
      "constant": true,
      "inputs": [
        {
          "internalType": "uint256",
          "name": "index",
          "type": "uint256"
        }
      ],
      "name": "tokenByIndex",
      "outputs": [
        {
          "internalType": "uint256",
          "name": "",
          "type": "uint256"
        }
      ],
      "payable": false,
      "stateMutability": "view",
      "type": "function"
    },
    {
      "constant": true,
      "inputs": [
        {
          "internalType": "address",
          "name": "owner",
          "type": "address"
        },
        {
          "internalType": "uint256",
          "name": "index",
          "type": "uint256"
        }
      ],
      "name": "tokenOfOwnerByIndex",
      "outputs": [
        {
          "internalType": "uint256",
          "name": "",
          "type": "uint256"
        }
      ],
      "payable": false,
      "stateMutability": "view",
      "type": "function"
    },
    {
      "constant": true,
      "inputs": [
        {
          "internalType": "uint256",
          "name": "tokenId",
          "type": "uint256"
        }
      ],
      "name": "tokenURI",
      "outputs": [
        {
          "internalType": "string",
          "name": "",
          "type": "string"
        }
      ],
      "payable": false,
      "stateMutability": "view",
      "type": "function"
    },
    {
      "constant": true,
      "inputs": [],
      "name": "totalSupply",
      "outputs": [
        {
          "internalType": "uint256",
          "name": "",
          "type": "uint256"
        }
      ],
      "payable": false,
      "stateMutability": "view",
      "type": "function"
    },
    {
      "constant": false,
      "inputs": [
        {
          "internalType": "address",
          "name": "from",
          "type": "address"
        },
        {
          "internalType": "address",
          "name": "to",
          "type": "address"
        },
        {
          "internalType": "uint256",
          "name": "tokenId",
          "type": "uint256"
        }
      ],
      "name": "transferFrom",
      "outputs": [],
      "payable": false,
      "stateMutability": "nonpayable",
      "type": "function"
    },
    {
      "constant": false,
      "inputs": [
        {
          "internalType": "address",
          "name": "owner",
          "type": "address"
        },
        {
          "internalType": "uint256",
          "name": "tokenId",
          "type": "uint256"
        }
      ],
      "name": "burnFrom",
      "outputs": [],
      "payable": false,
      "stateMutability": "nonpayable",
      "type": "function"
    },
    {
      "constant": false,
      "inputs": [
        {
          "internalType": "uint256",
          "name": "tokenId",
          "type": "uint256"
        },
        {
          "internalType": "string",
          "name": "tokenURI",
          "type": "string"
        }
      ],
      "name": "setTokenURI",
      "outputs": [],
      "payable": false,
      "stateMutability": "nonpayable",
      "type": "function"
    },
    {
      "constant": false,
      "inputs": [],
      "name": "increment",
      "outputs": [],
      "payable": false,
      "stateMutability": "nonpayable",
      "type": "function"
    },
    {
      "constant": false,
      "inputs": [],
      "name": "decrement",
      "outputs": [],
      "payable": false,
      "stateMutability": "nonpayable",
      "type": "function"
    },
    {
      "constant": true,
      "inputs": [
        {
          "internalType": "uint256",
          "name": "value",
          "type": "uint256"
        }
      ],
      "name": "checkSupply",
      "outputs": [
        {
          "internalType": "bool",
          "name": "",
          "type": "bool"
        }
      ],
      "payable": false,
      "stateMutability": "view",
      "type": "function"
    }
  ],
  "bytecode": "0x60806040523480156200001157600080fd5b5060405162002d9938038062002d99833981810160405260808110156200003757600080fd5b8151602083018051604051929492938301929190846401000000008211156200005f57600080fd5b9083019060208201858111156200007557600080fd5b82516401000000008111828201881017156200009057600080fd5b82525081516020918201929091019080838360005b83811015620000bf578181015183820152602001620000a5565b50505050905090810190601f168015620000ed5780820380516001836020036101000a031916815260200191505b50604052602001805160405193929190846401000000008211156200011157600080fd5b9083019060208201858111156200012757600080fd5b82516401000000008111828201881017156200014257600080fd5b82525081516020918201929091019080838360005b838110156200017157818101518382015260200162000157565b50505050905090810190601f1680156200019f5780820380516001836020036101000a031916815260200191505b5060405260200180516040519392919084640100000000821115620001c357600080fd5b908301906020820185811115620001d957600080fd5b8251640100000000811182820188101715620001f457600080fd5b82525081516020918201929091019080838360005b838110156200022357818101518382015260200162000209565b50505050905090810190601f168015620002515780820380516001836020036101000a031916815260200191505b50604052508491508390508181620002796301ffc9a760e01b6001600160e01b036200035116565b620002946380ac58cd60e01b6001600160e01b036200035116565b620002ba620002ab6001600160e01b03620003d616565b6001600160e01b03620003db16565b620002d563780e9d6360e01b6001600160e01b036200035116565b8151620002ea90600a9060208501906200053c565b5080516200030090600b9060208401906200053c565b506200031c635b5e139f60e01b6001600160e01b036200035116565b5050600e80546001600160a01b0319166001600160a01b03881617905550620003479050816200042d565b50505050620005de565b6001600160e01b03198082161415620003b1576040805162461bcd60e51b815260206004820152601c60248201527f4552433136353a20696e76616c696420696e7465726661636520696400000000604482015290519081900360640190fd5b6001600160e01b0319166000908152602081905260409020805460ff19166001179055565b335b90565b620003f68160056200044660201b62001f5b1790919060201c565b6040516001600160a01b038216907f6ae172837ea30b801fbfcdd4108aa1d5bf8ff775444fd70256b44e6bf3dfc3f690600090a250565b80516200044290600c9060208401906200053c565b5050565b6200045b82826001600160e01b03620004d316565b15620004ae576040805162461bcd60e51b815260206004820152601f60248201527f526f6c65733a206163636f756e7420616c72656164792068617320726f6c6500604482015290519081900360640190fd5b6001600160a01b0316600090815260209190915260409020805460ff19166001179055565b60006001600160a01b0382166200051c5760405162461bcd60e51b815260040180806020018281038252602281526020018062002d776022913960400191505060405180910390fd5b506001600160a01b03166000908152602091909152604090205460ff1690565b828054600181600116156101000203166002900490600052602060002090601f016020900481019282601f106200057f57805160ff1916838001178555620005af565b82800160010185558215620005af579182015b82811115620005af57825182559160200191906001019062000592565b50620005bd929150620005c1565b5090565b620003d891905b80821115620005bd5760008155600101620005c8565b61278980620005ee6000396000f3fe608060405234801561001057600080fd5b50600436106101e55760003560e01c80636352211e1161010f578063a1448194116100a2578063c87b56dd11610071578063c87b56dd14610794578063d09de08a146107b1578063e96e2ced146107b9578063e985e9c5146107d6576101e5565b8063a14481941461064e578063a22cb4651461067a578063aa271e1a146106a8578063b88d4fde146106ce576101e5565b80638832e6e3116100de5780638832e6e31461055d57806395d89b4114610618578063983b2d56146106205780639865027514610646576101e5565b80636352211e146104e65780636c0360eb1461050357806370a082311461050b57806379cc679014610531576101e5565b806323b872dd1161018757806342842e0e1161015657806342842e0e1461046e57806342966c68146104a45780634f6ccce7146104c157806361bc221a146104de576101e5565b806323b872dd146103d85780632baeceb71461040e5780632f745c591461041657806340c10f1914610442576101e5565b8063095ea7b3116101c3578063095ea7b3146102db57806311c9adc814610309578063162094c41461031157806318160ddd146103be576101e5565b806301ffc9a7146101ea57806306fdde0314610225578063081812fc146102a2575b600080fd5b6102116004803603602081101561020057600080fd5b50356001600160e01b031916610804565b604080519115158252519081900360200190f35b61022d610827565b6040805160208082528351818301528351919283929083019185019080838360005b8381101561026757818101518382015260200161024f565b50505050905090810190601f1680156102945780820380516001836020036101000a031916815260200191505b509250505060405180910390f35b6102bf600480360360208110156102b857600080fd5b50356108be565b604080516001600160a01b039092168252519081900360200190f35b610307600480360360408110156102f157600080fd5b506001600160a01b038135169060200135610920565b005b6102bf610a48565b6103076004803603604081101561032757600080fd5b8135919081019060408101602082013564010000000081111561034957600080fd5b82018360208201111561035b57600080fd5b8035906020019184600183028401116401000000008311171561037d57600080fd5b91908080601f016020809104026020016040519081016040528093929190818152602001838380828437600092019190915250929550610a57945050505050565b6103c6610ada565b60408051918252519081900360200190f35b610307600480360360608110156103ee57600080fd5b506001600160a01b03813581169160208101359091169060400135610ae0565b610307610b3c565b6103c66004803603604081101561042c57600080fd5b506001600160a01b038135169060200135610b93565b6102116004803603604081101561045857600080fd5b506001600160a01b038135169060200135610c12565b6103076004803603606081101561048457600080fd5b506001600160a01b03813581169160208101359091169060400135610c6d565b610307600480360360208110156104ba57600080fd5b5035610c88565b6103c6600480360360208110156104d757600080fd5b5035610cda565b6103c6610d40565b6102bf600480360360208110156104fc57600080fd5b5035610d46565b61022d610da0565b6103c66004803603602081101561052157600080fd5b50356001600160a01b0316610e01565b6103076004803603604081101561054757600080fd5b506001600160a01b038135169060200135610e69565b6102116004803603606081101561057357600080fd5b6001600160a01b03823516916020810135918101906060810160408201356401000000008111156105a357600080fd5b8201836020820111156105b557600080fd5b803590602001918460018302840111640100000000831117156105d757600080fd5b91908080601f016020809104026020016040519081016040528093929190818152602001838380828437600092019190915250929550610eb9945050505050565b61022d610f16565b6103076004803603602081101561063657600080fd5b50356001600160a01b0316610f77565b610307610fc6565b6102116004803603604081101561066457600080fd5b506001600160a01b038135169060200135610fd8565b6103076004803603604081101561069057600080fd5b506001600160a01b038135169060200135151561102a565b610211600480360360208110156106be57600080fd5b50356001600160a01b031661112f565b610307600480360360808110156106e457600080fd5b6001600160a01b0382358116926020810135909116916040820135919081019060808101606082013564010000000081111561071f57600080fd5b82018360208201111561073157600080fd5b8035906020019184600183028401116401000000008311171561075357600080fd5b91908080601f016020809104026020016040519081016040528093929190818152602001838380828437600092019190915250929550611142945050505050565b61022d600480360360208110156107aa57600080fd5b50356111a0565b610307611447565b610211600480360360208110156107cf57600080fd5b5035611498565b610211600480360360408110156107ec57600080fd5b506001600160a01b038135811691602001351661149f565b6001600160e01b0319811660009081526020819052604090205460ff165b919050565b600a8054604080516020601f60026000196101006001881615020190951694909404938401819004810282018101909252828152606093909290918301828280156108b35780601f10610888576101008083540402835291602001916108b3565b820191906000526020600020905b81548152906001019060200180831161089657829003601f168201915b505050505090505b90565b60006108c9826114cd565b6109045760405162461bcd60e51b815260040180806020018281038252602c8152602001806125b0602c913960400191505060405180910390fd5b506000908152600260205260409020546001600160a01b031690565b600061092b82610d46565b9050806001600160a01b0316836001600160a01b0316141561097e5760405162461bcd60e51b81526004018080602001828103825260218152602001806126826021913960400191505060405180910390fd5b806001600160a01b03166109906114ea565b6001600160a01b031614806109b157506109b1816109ac6114ea565b61149f565b6109ec5760405162461bcd60e51b81526004018080602001828103825260388152602001806124d46038913960400191505060405180910390fd5b60008281526002602052604080822080546001600160a01b0319166001600160a01b0387811691821790925591518593918516917f8c5be1e5ebec7d5bd14f71427d1e84f3dd0314c0f7b2291e5b200ac8c7c3b92591a4505050565b600e546001600160a01b031681565b610a6082610d46565b6001600160a01b0316610a716114ea565b6001600160a01b031614610acc576040805162461bcd60e51b815260206004820152601b60248201527f6f6e6c79206f776e65722063616e2073657420746f6b656e5552490000000000604482015290519081900360640190fd5b610ad682826114ee565b5050565b60085490565b610af1610aeb6114ea565b82611551565b610b2c5760405162461bcd60e51b81526004018080602001828103825260318152602001806126a36031913960400191505060405180910390fd5b610b378383836115f5565b505050565b610b4c610b476114ea565b61112f565b610b875760405162461bcd60e51b815260040180806020018281038252603081526020018061255f6030913960400191505060405180910390fd5b600f8054600019019055565b6000610b9e83610e01565b8210610bdb5760405162461bcd60e51b815260040180806020018281038252602b815260200180612427602b913960400191505060405180910390fd5b6001600160a01b0383166000908152600660205260409020805483908110610bff57fe5b9060005260206000200154905092915050565b6000610c1f610b476114ea565b610c5a5760405162461bcd60e51b815260040180806020018281038252603081526020018061255f6030913960400191505060405180910390fd5b610c648383611614565b50600192915050565b610b3783838360405180602001604052806000815250611142565b610c93610aeb6114ea565b610cce5760405162461bcd60e51b81526004018080602001828103825260308152602001806127256030913960400191505060405180910390fd5b610cd781611631565b50565b6000610ce4610ada565b8210610d215760405162461bcd60e51b815260040180806020018281038252602c8152602001806126d4602c913960400191505060405180910390fd5b60088281548110610d2e57fe5b90600052602060002001549050919050565b600f5481565b6000818152600160205260408120546001600160a01b031680610d9a5760405162461bcd60e51b81526004018080602001828103825260298152602001806125366029913960400191505060405180910390fd5b92915050565b600c8054604080516020601f60026000196101006001881615020190951694909404938401819004810282018101909252828152606093909290918301828280156108b35780601f10610888576101008083540402835291602001916108b3565b60006001600160a01b038216610e485760405162461bcd60e51b815260040180806020018281038252602a81526020018061250c602a913960400191505060405180910390fd5b6001600160a01b0382166000908152600360205260409020610d9a90611643565b610e74610aeb6114ea565b610eaf5760405162461bcd60e51b81526004018080602001828103825260308152602001806127256030913960400191505060405180910390fd5b610ad68282611647565b6000610ec6610b476114ea565b610f015760405162461bcd60e51b815260040180806020018281038252603081526020018061255f6030913960400191505060405180910390fd5b610f0c84848461168f565b5060019392505050565b600b8054604080516020601f60026000196101006001881615020190951694909404938401819004810282018101909252828152606093909290918301828280156108b35780601f10610888576101008083540402835291602001916108b3565b610f82610b476114ea565b610fbd5760405162461bcd60e51b815260040180806020018281038252603081526020018061255f6030913960400191505060405180910390fd5b610cd7816116e1565b610fd6610fd16114ea565b611729565b565b6000610fe5610b476114ea565b6110205760405162461bcd60e51b815260040180806020018281038252603081526020018061255f6030913960400191505060405180910390fd5b610c648383611771565b6110326114ea565b6001600160a01b0316826001600160a01b03161415611098576040805162461bcd60e51b815260206004820152601960248201527f4552433732313a20617070726f766520746f2063616c6c657200000000000000604482015290519081900360640190fd5b80600460006110a56114ea565b6001600160a01b03908116825260208083019390935260409182016000908120918716808252919093529120805460ff1916921515929092179091556110e96114ea565b60408051841515815290516001600160a01b0392909216917f17307eab39ab6107e8899845ad3d59bd9653f200f220920489ca2b5937696c319181900360200190a35050565b6000610d9a60058363ffffffff61178b16565b61115361114d6114ea565b83611551565b61118e5760405162461bcd60e51b81526004018080602001828103825260318152602001806126a36031913960400191505060405180910390fd5b61119a848484846117f2565b50505050565b60606111ab826114cd565b6111e65760405162461bcd60e51b815260040180806020018281038252602f815260200180612653602f913960400191505060405180910390fd5b6000828152600d602090815260409182902080548351601f600260001961010060018616150201909316929092049182018490048402810184019094528084526060939283018282801561127b5780601f106112505761010080835404028352916020019161127b565b820191906000526020600020905b81548152906001019060200180831161125e57829003601f168201915b5050600c54939450505050600260001961010060018416150201909116046112a4579050610822565b80511561137557600c81604051602001808380546001816001161561010002031660029004801561130c5780601f106112ea57610100808354040283529182019161130c565b820191906000526020600020905b8154815290600101906020018083116112f8575b5050825160208401908083835b602083106113385780518252601f199092019160209182019101611319565b6001836020036101000a03801982511681845116808217855250505050505090500192505050604051602081830303815290604052915050610822565b600c61138084611844565b60405160200180838054600181600116156101000203166002900480156113de5780601f106113bc5761010080835404028352918201916113de565b820191906000526020600020905b8154815290600101906020018083116113ca575b5050825160208401908083835b6020831061140a5780518252601f1990920191602091820191016113eb565b6001836020036101000a03801982511681845116808217855250505050505090500192505050604051602081830303815290604052915050919050565b611452610b476114ea565b61148d5760405162461bcd60e51b815260040180806020018281038252603081526020018061255f6030913960400191505060405180910390fd5b600f80546001019055565b600f541490565b6001600160a01b03918216600090815260046020908152604080832093909416825291909152205460ff1690565b6000908152600160205260409020546001600160a01b0316151590565b3390565b6114f7826114cd565b6115325760405162461bcd60e51b815260040180806020018281038252602c8152602001806125dc602c913960400191505060405180910390fd5b6000828152600d602090815260409091208251610b379284019061232a565b600061155c826114cd565b6115975760405162461bcd60e51b815260040180806020018281038252602c8152602001806124a8602c913960400191505060405180910390fd5b60006115a283610d46565b9050806001600160a01b0316846001600160a01b031614806115dd5750836001600160a01b03166115d2846108be565b6001600160a01b0316145b806115ed57506115ed818561149f565b949350505050565b611600838383611908565b61160a8382611a4c565b610b378282611b41565b61161e8282611b7f565b6116288282611b41565b610ad681611cb0565b610cd761163d82610d46565b82611647565b5490565b6116518282611cf4565b6000818152600d60205260409020546002600019610100600184161502019091160415610ad6576000818152600d60205260408120610ad6916123a8565b6116998383611614565b6116a66000848484611d20565b610b375760405162461bcd60e51b81526004018080602001828103825260328152602001806124526032913960400191505060405180910390fd5b6116f260058263ffffffff611f5b16565b6040516001600160a01b038216907f6ae172837ea30b801fbfcdd4108aa1d5bf8ff775444fd70256b44e6bf3dfc3f690600090a250565b61173a60058263ffffffff611fdc16565b6040516001600160a01b038216907fe94479a9f7e1952cc78f2d6baab678adc1b772d936c6583def489e524cb6669290600090a250565b610ad682826040518060200160405280600081525061168f565b60006001600160a01b0382166117d25760405162461bcd60e51b81526004018080602001828103825260228152602001806126086022913960400191505060405180910390fd5b506001600160a01b03166000908152602091909152604090205460ff1690565b6117fd8484846115f5565b61180984848484611d20565b61119a5760405162461bcd60e51b81526004018080602001828103825260328152602001806124526032913960400191505060405180910390fd5b60608161186957506040805180820190915260018152600360fc1b6020820152610822565b8160005b811561188157600101600a8204915061186d565b6060816040519080825280601f01601f1916602001820160405280156118ae576020820181803883390190505b50859350905060001982015b83156118ff57600a840660300160f81b828280600190039350815181106118dd57fe5b60200101906001600160f81b031916908160001a905350600a840493506118ba565b50949350505050565b826001600160a01b031661191b82610d46565b6001600160a01b0316146119605760405162461bcd60e51b815260040180806020018281038252602981526020018061262a6029913960400191505060405180910390fd5b6001600160a01b0382166119a55760405162461bcd60e51b81526004018080602001828103825260248152602001806124846024913960400191505060405180910390fd5b6119ae81612043565b6001600160a01b03831660009081526003602052604090206119cf9061207e565b6001600160a01b03821660009081526003602052604090206119f090612095565b60008181526001602052604080822080546001600160a01b0319166001600160a01b0386811691821790925591518493918716917fddf252ad1be2c89b69c2b068fc378daa952ba7f163c4a11628f55a4df523b3ef91a4505050565b6001600160a01b038216600090815260066020526040812054611a7690600163ffffffff61209e16565b600083815260076020526040902054909150808214611b11576001600160a01b0384166000908152600660205260408120805484908110611ab357fe5b906000526020600020015490508060066000876001600160a01b03166001600160a01b031681526020019081526020016000208381548110611af157fe5b600091825260208083209091019290925591825260079052604090208190555b6001600160a01b0384166000908152600660205260409020805490611b3a9060001983016123ec565b5050505050565b6001600160a01b0390911660009081526006602081815260408084208054868652600784529185208290559282526001810183559183529091200155565b6001600160a01b038216611bda576040805162461bcd60e51b815260206004820181905260248201527f4552433732313a206d696e7420746f20746865207a65726f2061646472657373604482015290519081900360640190fd5b611be3816114cd565b15611c35576040805162461bcd60e51b815260206004820152601c60248201527f4552433732313a20746f6b656e20616c7265616479206d696e74656400000000604482015290519081900360640190fd5b600081815260016020908152604080832080546001600160a01b0319166001600160a01b038716908117909155835260039091529020611c7490612095565b60405181906001600160a01b038416906000907fddf252ad1be2c89b69c2b068fc378daa952ba7f163c4a11628f55a4df523b3ef908290a45050565b600880546000838152600960205260408120829055600182018355919091527ff3f7a9fe364faab93b216da50a3214154f22a0a2b415b23a84c8169e8b636ee30155565b611cfe82826120e7565b611d088282611a4c565b600081815260076020526040812055610ad6816121be565b6000611d34846001600160a01b031661225a565b611d40575060016115ed565b600060606001600160a01b038616630a85bd0160e11b611d5e6114ea565b89888860405160240180856001600160a01b03166001600160a01b03168152602001846001600160a01b03166001600160a01b0316815260200183815260200180602001828103825283818151815260200191508051906020019080838360005b83811015611dd7578181015183820152602001611dbf565b50505050905090810190601f168015611e045780820380516001836020036101000a031916815260200191505b5060408051601f198184030181529181526020820180516001600160e01b03166001600160e01b0319909a16999099178952518151919890975087965094509250829150849050835b60208310611e6c5780518252601f199092019160209182019101611e4d565b6001836020036101000a0380198251168184511680821785525050505050509050019150506000604051808303816000865af19150503d8060008114611ece576040519150601f19603f3d011682016040523d82523d6000602084013e611ed3565b606091505b509150915081611f2457805115611eed5780518082602001fd5b60405162461bcd60e51b81526004018080602001828103825260328152602001806124526032913960400191505060405180910390fd5b6000818060200190516020811015611f3b57600080fd5b50516001600160e01b031916630a85bd0160e11b1493506115ed92505050565b611f65828261178b565b15611fb7576040805162461bcd60e51b815260206004820152601f60248201527f526f6c65733a206163636f756e7420616c72656164792068617320726f6c6500604482015290519081900360640190fd5b6001600160a01b0316600090815260209190915260409020805460ff19166001179055565b611fe6828261178b565b6120215760405162461bcd60e51b815260040180806020018281038252602181526020018061258f6021913960400191505060405180910390fd5b6001600160a01b0316600090815260209190915260409020805460ff19169055565b6000818152600260205260409020546001600160a01b031615610cd757600090815260026020526040902080546001600160a01b0319169055565b805461209190600163ffffffff61209e16565b9055565b80546001019055565b60006120e083836040518060400160405280601e81526020017f536166654d6174683a207375627472616374696f6e206f766572666c6f770000815250612293565b9392505050565b816001600160a01b03166120fa82610d46565b6001600160a01b03161461213f5760405162461bcd60e51b81526004018080602001828103825260258152602001806127006025913960400191505060405180910390fd5b61214881612043565b6001600160a01b03821660009081526003602052604090206121699061207e565b60008181526001602052604080822080546001600160a01b0319169055518291906001600160a01b038516907fddf252ad1be2c89b69c2b068fc378daa952ba7f163c4a11628f55a4df523b3ef908390a45050565b6008546000906121d590600163ffffffff61209e16565b600083815260096020526040812054600880549394509092849081106121f757fe5b90600052602060002001549050806008838154811061221257fe5b600091825260208083209091019290925582815260099091526040902082905560088054906122459060001983016123ec565b50505060009182525060096020526040812055565b6000813f7fc5d2460186f7233c927e7db2dcc703c0e500b653ca82273b7bfad8045d85a4708181148015906115ed575050151592915050565b600081848411156123225760405162461bcd60e51b81526004018080602001828103825283818151815260200191508051906020019080838360005b838110156122e75781810151838201526020016122cf565b50505050905090810190601f1680156123145780820380516001836020036101000a031916815260200191505b509250505060405180910390fd5b505050900390565b828054600181600116156101000203166002900490600052602060002090601f016020900481019282601f1061236b57805160ff1916838001178555612398565b82800160010185558215612398579182015b8281111561239857825182559160200191906001019061237d565b506123a492915061240c565b5090565b50805460018160011615610100020316600290046000825580601f106123ce5750610cd7565b601f016020900490600052602060002090810190610cd7919061240c565b815481835581811115610b3757600083815260209020610b379181019083015b6108bb91905b808211156123a4576000815560010161241256fe455243373231456e756d657261626c653a206f776e657220696e646578206f7574206f6620626f756e64734552433732313a207472616e7366657220746f206e6f6e20455243373231526563656976657220696d706c656d656e7465724552433732313a207472616e7366657220746f20746865207a65726f20616464726573734552433732313a206f70657261746f7220717565727920666f72206e6f6e6578697374656e7420746f6b656e4552433732313a20617070726f76652063616c6c6572206973206e6f74206f776e6572206e6f7220617070726f76656420666f7220616c6c4552433732313a2062616c616e636520717565727920666f7220746865207a65726f20616464726573734552433732313a206f776e657220717565727920666f72206e6f6e6578697374656e7420746f6b656e4d696e746572526f6c653a2063616c6c657220646f6573206e6f74206861766520746865204d696e74657220726f6c65526f6c65733a206163636f756e7420646f6573206e6f74206861766520726f6c654552433732313a20617070726f76656420717565727920666f72206e6f6e6578697374656e7420746f6b656e4552433732314d657461646174613a2055524920736574206f66206e6f6e6578697374656e7420746f6b656e526f6c65733a206163636f756e7420697320746865207a65726f20616464726573734552433732313a207472616e73666572206f6620746f6b656e2074686174206973206e6f74206f776e4552433732314d657461646174613a2055524920717565727920666f72206e6f6e6578697374656e7420746f6b656e4552433732313a20617070726f76616c20746f2063757272656e74206f776e65724552433732313a207472616e736665722063616c6c6572206973206e6f74206f776e6572206e6f7220617070726f766564455243373231456e756d657261626c653a20676c6f62616c20696e646578206f7574206f6620626f756e64734552433732313a206275726e206f6620746f6b656e2074686174206973206e6f74206f776e4552433732314275726e61626c653a2063616c6c6572206973206e6f74206f776e6572206e6f7220617070726f766564a265627a7a723158200ffae07a2c765852792162a687ca4a20a60f65b89ffd748d28592ce3a8c027f664736f6c63430005110032526f6c65733a206163636f756e7420697320746865207a65726f2061646472657373",
  "source": "pragma solidity 0.5.17;\n\nimport \"./ERC721FullCustom.sol\";\nimport \"@openzeppelin/contracts/token/ERC721/ERC721Burnable.sol\";\nimport \"@openzeppelin/contracts/token/ERC721/ERC721Mintable.sol\";\n\ncontract BridgedNFTToken is ERC721Mintable, ERC721Burnable, ERC721FullCustom {\n    address public ethTokenAddr;\n    uint256 public counter;\n    constructor(\n        address _ethTokenAddr,\n        string memory name,\n        string memory symbol,\n        string memory baseURI\n    ) public ERC721FullCustom(name, symbol) {\n        ethTokenAddr = _ethTokenAddr;\n        _setBaseURI(baseURI);\n    }\n\n    function burnFrom(address owner, uint256 tokenId) public {\n        //solhint-disable-next-line max-line-length\n        require(_isApprovedOrOwner(_msgSender(), tokenId), \"ERC721Burnable: caller is not owner nor approved\");\n        _burn(owner, tokenId);\n    }\n\n    function setTokenURI(uint256 tokenId, string memory tokenURI) public {\n        require(_msgSender() == ownerOf(tokenId), \"only owner can set tokenURI\");\n        _setTokenURI(tokenId, tokenURI);\n    }\n\n    function increment() public onlyMinter {\n        counter += 1;\n    }\n\n    function decrement() public onlyMinter {\n        counter -= 1;\n    }\n\n    function checkSupply(uint256 value) public view returns (bool) {\n        return counter == value;\n    }\n}",
  "sourcePath": "g:\\bmgalego\\subgraphtest\\ethhmy-bridge\\contracts\\lib\\BridgedNFTToken.sol",
  "compiler": {
    "name": "solc",
    "version": "0.5.17+commit.d19bba13.Emscripten.clang"
  },
  "schemaVersion": "3.3.4",
  "updatedAt": "2021-03-30T18:14:45.377Z",
  "devdoc": {
    "methods": {
      "approve(address,uint256)": {
        "details": "Approves another address to transfer the given token ID The zero address indicates there is no approved address. There can only be one approved address per token at a given time. Can only be called by the token owner or an approved operator.",
        "params": {
          "to": "address to be approved for the given token ID",
          "tokenId": "uint256 ID of the token to be approved"
        }
      },
      "balanceOf(address)": {
        "details": "Gets the balance of the specified address.",
        "params": {
          "owner": "address to query the balance of"
        },
        "return": "uint256 representing the amount owned by the passed address"
      },
      "baseURI()": {
        "details": "Returns the base URI set via {_setBaseURI}. This will be automatically added as a preffix in {tokenURI} to each token's URI, when they are non-empty.    * _Available since v2.5.0._"
      },
      "burn(uint256)": {
        "details": "Burns a specific ERC721 token.",
        "params": {
          "tokenId": "uint256 id of the ERC721 token to be burned."
        }
      },
      "getApproved(uint256)": {
        "details": "Gets the approved address for a token ID, or zero if no address set Reverts if the token ID does not exist.",
        "params": {
          "tokenId": "uint256 ID of the token to query the approval of"
        },
        "return": "address currently approved for the given token ID"
      },
      "isApprovedForAll(address,address)": {
        "details": "Tells whether an operator is approved by a given owner.",
        "params": {
          "operator": "operator address which you want to query the approval of",
          "owner": "owner address which you want to query the approval of"
        },
        "return": "bool whether the given operator is approved by the given owner"
      },
      "mint(address,uint256)": {
        "details": "Function to mint tokens.",
        "params": {
          "to": "The address that will receive the minted token.",
          "tokenId": "The token id to mint."
        },
        "return": "A boolean that indicates if the operation was successful."
      },
      "name()": {
        "details": "Gets the token name.",
        "return": "string representing the token name"
      },
      "ownerOf(uint256)": {
        "details": "Gets the owner of the specified token ID.",
        "params": {
          "tokenId": "uint256 ID of the token to query the owner of"
        },
        "return": "address currently marked as the owner of the given token ID"
      },
      "safeMint(address,uint256)": {
        "details": "Function to safely mint tokens.",
        "params": {
          "to": "The address that will receive the minted token.",
          "tokenId": "The token id to mint."
        },
        "return": "A boolean that indicates if the operation was successful."
      },
      "safeMint(address,uint256,bytes)": {
        "details": "Function to safely mint tokens.",
        "params": {
          "_data": "bytes data to send along with a safe transfer check.",
          "to": "The address that will receive the minted token.",
          "tokenId": "The token id to mint."
        },
        "return": "A boolean that indicates if the operation was successful."
      },
      "safeTransferFrom(address,address,uint256)": {
        "details": "Safely transfers the ownership of a given token ID to another address If the target address is a contract, it must implement {IERC721Receiver-onERC721Received}, which is called upon a safe transfer, and return the magic value `bytes4(keccak256(\"onERC721Received(address,address,uint256,bytes)\"))`; otherwise, the transfer is reverted. Requires the msg.sender to be the owner, approved, or operator",
        "params": {
          "from": "current owner of the token",
          "to": "address to receive the ownership of the given token ID",
          "tokenId": "uint256 ID of the token to be transferred"
        }
      },
      "safeTransferFrom(address,address,uint256,bytes)": {
        "details": "Safely transfers the ownership of a given token ID to another address If the target address is a contract, it must implement {IERC721Receiver-onERC721Received}, which is called upon a safe transfer, and return the magic value `bytes4(keccak256(\"onERC721Received(address,address,uint256,bytes)\"))`; otherwise, the transfer is reverted. Requires the _msgSender() to be the owner, approved, or operator",
        "params": {
          "_data": "bytes data to send along with a safe transfer check",
          "from": "current owner of the token",
          "to": "address to receive the ownership of the given token ID",
          "tokenId": "uint256 ID of the token to be transferred"
        }
      },
      "setApprovalForAll(address,bool)": {
        "details": "Sets or unsets the approval of a given operator An operator is allowed to transfer all tokens of the sender on their behalf.",
        "params": {
          "approved": "representing the status of the approval to be set",
          "to": "operator address to set the approval"
        }
      },
      "supportsInterface(bytes4)": {
        "details": "See {IERC165-supportsInterface}.     * Time complexity O(1), guaranteed to always use less than 30 000 gas."
      },
      "symbol()": {
        "details": "Gets the token symbol.",
        "return": "string representing the token symbol"
      },
      "tokenByIndex(uint256)": {
        "details": "Gets the token ID at a given index of all the tokens in this contract Reverts if the index is greater or equal to the total number of tokens.",
        "params": {
          "index": "uint256 representing the index to be accessed of the tokens list"
        },
        "return": "uint256 token ID at the given index of the tokens list"
      },
      "tokenOfOwnerByIndex(address,uint256)": {
        "details": "Gets the token ID at a given index of the tokens list of the requested owner.",
        "params": {
          "index": "uint256 representing the index to be accessed of the requested tokens list",
          "owner": "address owning the tokens list to be accessed"
        },
        "return": "uint256 token ID at the given index of the tokens list owned by the requested address"
      },
      "tokenURI(uint256)": {
        "details": "Returns the URI for a given token ID. May return an empty string.     * If the token's URI is non-empty and a base URI was set (via {_setBaseURI}), it will be added to the token ID's URI as a prefix.     * Reverts if the token ID does not exist."
      },
      "totalSupply()": {
        "details": "Gets the total amount of tokens stored by the contract.",
        "return": "uint256 representing the total amount of tokens"
      },
      "transferFrom(address,address,uint256)": {
        "details": "Transfers the ownership of a given token ID to another address. Usage of this method is discouraged, use {safeTransferFrom} whenever possible. Requires the msg.sender to be the owner, approved, or operator.",
        "params": {
          "from": "current owner of the token",
          "to": "address to receive the ownership of the given token ID",
          "tokenId": "uint256 ID of the token to be transferred"
        }
      }
    }
  },
  "userdoc": {
    "methods": {}
  }
}