{
  "contractName": "BUSDHmyManager",
  "abi": [
    {
      "inputs": [
        {
          "internalType": "contract IBUSD",
          "name": "_hBUSD",
          "type": "address"
        },
        {
          "internalType": "address",
          "name": "_wallet",
          "type": "address"
        }
      ],
      "payable": false,
      "stateMutability": "nonpayable",
      "type": "constructor"
    },
    {
      "anonymous": false,
      "inputs": [
        {
          "indexed": true,
          "internalType": "address",
          "name": "token",
          "type": "address"
        },
        {
          "indexed": true,
          "internalType": "address",
          "name": "sender",
          "type": "address"
        },
        {
          "indexed": false,
          "internalType": "uint256",
          "name": "amount",
          "type": "uint256"
        },
        {
          "indexed": false,
          "internalType": "address",
          "name": "recipient",
          "type": "address"
        }
      ],
      "name": "Burned",
      "type": "event"
    },
    {
      "anonymous": false,
      "inputs": [
        {
          "indexed": false,
          "internalType": "address",
          "name": "oneToken",
          "type": "address"
        },
        {
          "indexed": false,
          "internalType": "uint256",
          "name": "amount",
          "type": "uint256"
        },
        {
          "indexed": false,
          "internalType": "address",
          "name": "recipient",
          "type": "address"
        },
        {
          "indexed": false,
          "internalType": "bytes32",
          "name": "receiptId",
          "type": "bytes32"
        }
      ],
      "name": "Minted",
      "type": "event"
    },
    {
      "constant": true,
      "inputs": [],
      "name": "hBUSD",
      "outputs": [
        {
          "internalType": "contract IBUSD",
          "name": "",
          "type": "address"
        }
      ],
      "payable": false,
      "stateMutability": "view",
      "type": "function"
    },
    {
      "constant": true,
      "inputs": [
        {
          "internalType": "bytes32",
          "name": "",
          "type": "bytes32"
        }
      ],
      "name": "usedEvents_",
      "outputs": [
        {
          "internalType": "bool",
          "name": "",
          "type": "bool"
        }
      ],
      "payable": false,
      "stateMutability": "view",
      "type": "function"
    },
    {
      "constant": true,
      "inputs": [],
      "name": "wallet",
      "outputs": [
        {
          "internalType": "address",
          "name": "",
          "type": "address"
        }
      ],
      "payable": false,
      "stateMutability": "view",
      "type": "function"
    },
    {
      "constant": false,
      "inputs": [
        {
          "internalType": "address",
          "name": "tokenManager",
          "type": "address"
        },
        {
          "internalType": "address",
          "name": "eBUSD",
          "type": "address"
        }
      ],
      "name": "register",
      "outputs": [],
      "payable": false,
      "stateMutability": "nonpayable",
      "type": "function"
    },
    {
      "constant": false,
      "inputs": [
        {
          "internalType": "address",
          "name": "tokenManager",
          "type": "address"
        },
        {
          "internalType": "address",
          "name": "eBUSD",
          "type": "address"
        }
      ],
      "name": "deregister",
      "outputs": [],
      "payable": false,
      "stateMutability": "nonpayable",
      "type": "function"
    },
    {
      "constant": false,
      "inputs": [
        {
          "internalType": "uint256",
          "name": "amount",
          "type": "uint256"
        },
        {
          "internalType": "address",
          "name": "recipient",
          "type": "address"
        }
      ],
      "name": "burnToken",
      "outputs": [],
      "payable": false,
      "stateMutability": "nonpayable",
      "type": "function"
    },
    {
      "constant": false,
      "inputs": [
        {
          "internalType": "uint256",
          "name": "amount",
          "type": "uint256"
        },
        {
          "internalType": "address",
          "name": "recipient",
          "type": "address"
        },
        {
          "internalType": "bytes32",
          "name": "receiptId",
          "type": "bytes32"
        }
      ],
      "name": "mintToken",
      "outputs": [],
      "payable": false,
      "stateMutability": "nonpayable",
      "type": "function"
    }
  ],
  "bytecode": "0x608060405234801561001057600080fd5b506040516109153803806109158339818101604052604081101561003357600080fd5b508051602090910151600080546001600160a01b039384166001600160a01b0319918216179091556002805493909216921691909117905561089b8061007a6000396000f3fe608060405234801561001057600080fd5b506004361061007d5760003560e01c8063a2d322641161005b578063a2d3226414610108578063aa67735414610110578063bccc9fcf1461013e578063dc593ca51461016f5761007d565b8063352e624514610082578063521eb273146100b257806354e08691146100d6575b600080fd5b6100b06004803603604081101561009857600080fd5b506001600160a01b038135811691602001351661019b565b005b6100ba610261565b604080516001600160a01b039092168252519081900360200190f35b6100b0600480360360608110156100ec57600080fd5b508035906001600160a01b036020820135169060400135610270565b6100ba61050d565b6100b06004803603604081101561012657600080fd5b506001600160a01b038135811691602001351661051c565b61015b6004803603602081101561015457600080fd5b50356105ff565b604080519115158252519081900360200190f35b6100b06004803603604081101561018557600080fd5b50803590602001356001600160a01b0316610614565b6002546001600160a01b031633146101f6576040805162461bcd60e51b8152602060048201526019602482015278121b5e53585b9859d95c8bdb9bdd0b585d5d1a1bdc9a5e9959603a1b604482015290519081900360640190fd5b604080516309dd78f360e11b81526001600160a01b0383811660048301526000602483018190529251908516926313baf1e6926044808201939182900301818387803b15801561024557600080fd5b505af1158015610259573d6000803e3d6000fd5b505050505050565b6002546001600160a01b031681565b6002546001600160a01b031633146102cb576040805162461bcd60e51b8152602060048201526019602482015278121b5e53585b9859d95c8bdb9bdd0b585d5d1a1bdc9a5e9959603a1b604482015290519081900360640190fd5b60008181526001602052604090205460ff16156103195760405162461bcd60e51b815260040180806020018281038252602a81526020018061083d602a913960400191505060405180910390fd5b6000818152600160208181526040808420805460ff19169093179092558254825163b921e16360e01b81526004810188905292516001600160a01b039091169363b921e163936024808201949392918390030190829087803b15801561037e57600080fd5b505af1158015610392573d6000803e3d6000fd5b505050506040513d60208110156103a857600080fd5b50516103f4576040805162461bcd60e51b8152602060048201526016602482015275121b5e53585b9859d95c8bdb5a5b9d0819985a5b195960521b604482015290519081900360640190fd5b600080546040805163a9059cbb60e01b81526001600160a01b038681166004830152602482018890529151919092169263a9059cbb92604480820193602093909283900390910190829087803b15801561044d57600080fd5b505af1158015610461573d6000803e3d6000fd5b505050506040513d602081101561047757600080fd5b50516104b45760405162461bcd60e51b81526004018080602001828103825260258152602001806108186025913960400191505060405180910390fd5b600054604080516001600160a01b039283168152602081018690529184168282015260608201839052517ffdc0a3af821280dd73e4f6683e16c5afc31a629d07af623f9a4689d6855938869181900360800190a1505050565b6000546001600160a01b031681565b6002546001600160a01b03163314610577576040805162461bcd60e51b8152602060048201526019602482015278121b5e53585b9859d95c8bdb9bdd0b585d5d1a1bdc9a5e9959603a1b604482015290519081900360640190fd5b6000805460408051634739f7e560e01b81526001600160a01b0385811660048301529283166024820152905191851692634739f7e5926044808401936020939083900390910190829087803b1580156105cf57600080fd5b505af11580156105e3573d6000803e3d6000fd5b505050506040513d60208110156105f957600080fd5b50505050565b60016020526000908152604090205460ff1681565b60008054604080516323b872dd60e01b81523360048201523060248201526044810186905290516001600160a01b03909216926323b872dd926064808401936020939083900390910190829087803b15801561066f57600080fd5b505af1158015610683573d6000803e3d6000fd5b505050506040513d602081101561069957600080fd5b50516106d65760405162461bcd60e51b815260040180806020018281038252602e8152602001806107ea602e913960400191505060405180910390fd5b6000805460408051634c7297cd60e11b81526004810186905290516001600160a01b03909216926398e52f9a926024808401936020939083900390910190829087803b15801561072557600080fd5b505af1158015610739573d6000803e3d6000fd5b505050506040513d602081101561074f57600080fd5b505161079b576040805162461bcd60e51b8152602060048201526016602482015275121b5e53585b9859d95c8bd89d5c9b8819985a5b195960521b604482015290519081900360640190fd5b600054604080518481526001600160a01b03848116602083015282513394909116927f47b4128ad231bee46bdb1f8614450b5ffe6eb96340e87519a0c3a8b91ee714ec928290030190a3505056fe486d794d616e616765722f636f756c64206e6f74207472616e7366657220746f6b656e732066726f6d2075736572486d794d616e616765722f7472616e73666572206166746572206d696e74206661696c6564486d794d616e616765722f546865206c6f636b206576656e742063616e6e6f7420626520726575736564a265627a7a72315820b0c3edf2a642f4ac2ab29559a3617180dd8aa8b9b4d3fdcb2021100ecdd4a01b64736f6c63430005110032",
  "source": "pragma solidity 0.5.17;\n\nimport \"./IBUSD.sol\";\nimport \"../lib/TokenManager.sol\";\n\ncontract BUSDHmyManager {\n    IBUSD public hBUSD;\n\n    mapping(bytes32 => bool) public usedEvents_;\n\n    event Burned(\n        address indexed token,\n        address indexed sender,\n        uint256 amount,\n        address recipient\n    );\n\n    event Minted(\n        address oneToken,\n        uint256 amount,\n        address recipient,\n        bytes32 receiptId\n    );\n\n    address public wallet;\n    modifier onlyWallet {\n        require(msg.sender == wallet, \"HmyManager/not-authorized\");\n        _;\n    }\n\n    /**\n     * @dev constructor\n     * @param _hBUSD harmony busd token contract address\n     * @param _wallet is the multisig wallet\n     */\n    constructor(IBUSD _hBUSD, address _wallet) public {\n        hBUSD = _hBUSD;\n        wallet = _wallet;\n    }\n\n    /**\n     * @dev register token mapping in the token manager\n     * @param tokenManager address to token manager\n     * @param eBUSD address of the ethereum token\n     */\n    function register(address tokenManager, address eBUSD) public onlyWallet {\n        TokenManager(tokenManager).registerToken(eBUSD, address(hBUSD));\n    }\n\n    /**\n     * @dev deregister token mapping in the token manager\n     * @param tokenManager address to token manager\n     * @param eBUSD address of the ethereum token\n     */\n    function deregister(address tokenManager, address eBUSD) public onlyWallet {\n        TokenManager(tokenManager).removeToken(eBUSD, 0);\n    }\n\n    /**\n     * @dev burns tokens on harmony to be unlocked on ethereum\n     * @param amount amount of tokens to burn\n     * @param recipient recipient of the unlock tokens on ethereum\n     */\n    function burnToken(uint256 amount, address recipient) public {\n        require(\n            hBUSD.transferFrom(msg.sender, address(this), amount),\n            \"HmyManager/could not transfer tokens from user\"\n        );\n        require(hBUSD.decreaseSupply(amount), \"HmyManager/burn failed\");\n        emit Burned(address(hBUSD), msg.sender, amount, recipient);\n    }\n\n    /**\n     * @dev mints tokens corresponding to the tokens locked in the ethereum chain\n     * @param amount amount of tokens for minting\n     * @param recipient recipient of the minted tokens (harmony address)\n     * @param receiptId transaction hash of the lock event on ethereum chain\n     */\n    function mintToken(\n        uint256 amount,\n        address recipient,\n        bytes32 receiptId\n    ) public onlyWallet {\n        require(\n            !usedEvents_[receiptId],\n            \"HmyManager/The lock event cannot be reused\"\n        );\n        usedEvents_[receiptId] = true;\n        require(hBUSD.increaseSupply(amount), \"HmyManager/mint failed\");\n        require(\n            hBUSD.transfer(recipient, amount),\n            \"HmyManager/transfer after mint failed\"\n        );\n        emit Minted(address(hBUSD), amount, recipient, receiptId);\n    }\n}\n",
  "sourcePath": "g:/bmgalego/subgraphtest/ethhmy-bridge/contracts/busd/BUSDHmyManager.sol",
  "compiler": {
    "name": "solc",
    "version": "0.5.17+commit.d19bba13.Emscripten.clang"
  },
  "schemaVersion": "3.3.4",
  "updatedAt": "2021-03-30T18:14:45.335Z",
  "devdoc": {
    "methods": {
      "burnToken(uint256,address)": {
        "details": "burns tokens on harmony to be unlocked on ethereum",
        "params": {
          "amount": "amount of tokens to burn",
          "recipient": "recipient of the unlock tokens on ethereum"
        }
      },
      "constructor": {
        "details": "constructor",
        "params": {
          "_hBUSD": "harmony busd token contract address",
          "_wallet": "is the multisig wallet"
        }
      },
      "deregister(address,address)": {
        "details": "deregister token mapping in the token manager",
        "params": {
          "eBUSD": "address of the ethereum token",
          "tokenManager": "address to token manager"
        }
      },
      "mintToken(uint256,address,bytes32)": {
        "details": "mints tokens corresponding to the tokens locked in the ethereum chain",
        "params": {
          "amount": "amount of tokens for minting",
          "receiptId": "transaction hash of the lock event on ethereum chain",
          "recipient": "recipient of the minted tokens (harmony address)"
        }
      },
      "register(address,address)": {
        "details": "register token mapping in the token manager",
        "params": {
          "eBUSD": "address of the ethereum token",
          "tokenManager": "address to token manager"
        }
      }
    }
  },
  "userdoc": {
    "methods": {}
  }
}