{
  "contractName": "LINKHmyManager",
  "abi": [
    {
      "inputs": [
        {
          "internalType": "contract ILINK",
          "name": "_hLINK",
          "type": "address"
        },
        {
          "internalType": "address",
          "name": "_wallet",
          "type": "address"
        }
      ],
      "payable": false,
      "stateMutability": "nonpayable",
      "type": "constructor"
    },
    {
      "anonymous": false,
      "inputs": [
        {
          "indexed": true,
          "internalType": "address",
          "name": "token",
          "type": "address"
        },
        {
          "indexed": true,
          "internalType": "address",
          "name": "sender",
          "type": "address"
        },
        {
          "indexed": false,
          "internalType": "uint256",
          "name": "amount",
          "type": "uint256"
        },
        {
          "indexed": false,
          "internalType": "address",
          "name": "recipient",
          "type": "address"
        }
      ],
      "name": "Burned",
      "type": "event"
    },
    {
      "anonymous": false,
      "inputs": [
        {
          "indexed": false,
          "internalType": "address",
          "name": "oneToken",
          "type": "address"
        },
        {
          "indexed": false,
          "internalType": "uint256",
          "name": "amount",
          "type": "uint256"
        },
        {
          "indexed": false,
          "internalType": "address",
          "name": "recipient",
          "type": "address"
        },
        {
          "indexed": false,
          "internalType": "bytes32",
          "name": "receiptId",
          "type": "bytes32"
        }
      ],
      "name": "Minted",
      "type": "event"
    },
    {
      "constant": true,
      "inputs": [],
      "name": "hLINK",
      "outputs": [
        {
          "internalType": "contract ILINK",
          "name": "",
          "type": "address"
        }
      ],
      "payable": false,
      "stateMutability": "view",
      "type": "function"
    },
    {
      "constant": true,
      "inputs": [
        {
          "internalType": "bytes32",
          "name": "",
          "type": "bytes32"
        }
      ],
      "name": "usedEvents_",
      "outputs": [
        {
          "internalType": "bool",
          "name": "",
          "type": "bool"
        }
      ],
      "payable": false,
      "stateMutability": "view",
      "type": "function"
    },
    {
      "constant": true,
      "inputs": [],
      "name": "wallet",
      "outputs": [
        {
          "internalType": "address",
          "name": "",
          "type": "address"
        }
      ],
      "payable": false,
      "stateMutability": "view",
      "type": "function"
    },
    {
      "constant": false,
      "inputs": [
        {
          "internalType": "address",
          "name": "tokenManager",
          "type": "address"
        },
        {
          "internalType": "address",
          "name": "eLINK",
          "type": "address"
        }
      ],
      "name": "register",
      "outputs": [],
      "payable": false,
      "stateMutability": "nonpayable",
      "type": "function"
    },
    {
      "constant": false,
      "inputs": [
        {
          "internalType": "address",
          "name": "tokenManager",
          "type": "address"
        },
        {
          "internalType": "address",
          "name": "eLINK",
          "type": "address"
        }
      ],
      "name": "deregister",
      "outputs": [],
      "payable": false,
      "stateMutability": "nonpayable",
      "type": "function"
    },
    {
      "constant": false,
      "inputs": [
        {
          "internalType": "uint256",
          "name": "amount",
          "type": "uint256"
        },
        {
          "internalType": "address",
          "name": "recipient",
          "type": "address"
        }
      ],
      "name": "burnToken",
      "outputs": [],
      "payable": false,
      "stateMutability": "nonpayable",
      "type": "function"
    },
    {
      "constant": false,
      "inputs": [
        {
          "internalType": "uint256",
          "name": "amount",
          "type": "uint256"
        },
        {
          "internalType": "address",
          "name": "recipient",
          "type": "address"
        },
        {
          "internalType": "bytes32",
          "name": "receiptId",
          "type": "bytes32"
        }
      ],
      "name": "mintToken",
      "outputs": [],
      "payable": false,
      "stateMutability": "nonpayable",
      "type": "function"
    }
  ],
  "bytecode": "0x608060405234801561001057600080fd5b506040516107663803806107668339818101604052604081101561003357600080fd5b508051602090910151600080546001600160a01b039384166001600160a01b031991821617909155600280549390921692169190911790556106ec8061007a6000396000f3fe608060405234801561001057600080fd5b506004361061007d5760003560e01c806354e086911161005b57806354e08691146100de578063aa67735414610110578063bccc9fcf1461013e578063dc593ca51461016f5761007d565b806326f533d114610082578063352e6245146100a6578063521eb273146100d6575b600080fd5b61008a61019b565b604080516001600160a01b039092168252519081900360200190f35b6100d4600480360360408110156100bc57600080fd5b506001600160a01b03813581169160200135166101aa565b005b61008a61027e565b6100d4600480360360608110156100f457600080fd5b508035906001600160a01b03602082013516906040013561028d565b6100d46004803603604081101561012657600080fd5b506001600160a01b0381358116916020013516610474565b61015b6004803603602081101561015457600080fd5b5035610557565b604080519115158252519081900360200190f35b6100d46004803603604081101561018557600080fd5b50803590602001356001600160a01b031661056c565b6000546001600160a01b031681565b6002546001600160a01b03163314610205576040805162461bcd60e51b8152602060048201526019602482015278121b5e53585b9859d95c8bdb9bdd0b585d5d1a1bdc9a5e9959603a1b604482015290519081900360640190fd5b604080516309dd78f360e11b81526001600160a01b0383811660048301526b033b2e3c9fd0803ce800000060248301529151918416916313baf1e69160448082019260009290919082900301818387803b15801561026257600080fd5b505af1158015610276573d6000803e3d6000fd5b505050505050565b6002546001600160a01b031681565b6002546001600160a01b031633146102e8576040805162461bcd60e51b8152602060048201526019602482015278121b5e53585b9859d95c8bdb9bdd0b585d5d1a1bdc9a5e9959603a1b604482015290519081900360640190fd5b60008181526001602052604090205460ff16156103365760405162461bcd60e51b815260040180806020018281038252602c81526020018061068c602c913960400191505060405180910390fd5b6000818152600160208181526040808420805460ff19169093179092558254825163a9059cbb60e01b81526001600160a01b038781166004830152602482018990529351939091169363a9059cbb93604480840194939192918390030190829087803b1580156103a557600080fd5b505af11580156103b9573d6000803e3d6000fd5b505050506040513d60208110156103cf57600080fd5b505161041b576040805162461bcd60e51b8152602060048201526016602482015275121b5e53585b9859d95c8bdb5a5b9d0819985a5b195960521b604482015290519081900360640190fd5b600054604080516001600160a01b039283168152602081018690529184168282015260608201839052517ffdc0a3af821280dd73e4f6683e16c5afc31a629d07af623f9a4689d6855938869181900360800190a1505050565b6002546001600160a01b031633146104cf576040805162461bcd60e51b8152602060048201526019602482015278121b5e53585b9859d95c8bdb9bdd0b585d5d1a1bdc9a5e9959603a1b604482015290519081900360640190fd5b6000805460408051634739f7e560e01b81526001600160a01b0385811660048301529283166024820152905191851692634739f7e5926044808401936020939083900390910190829087803b15801561052757600080fd5b505af115801561053b573d6000803e3d6000fd5b505050506040513d602081101561055157600080fd5b50505050565b60016020526000908152604090205460ff1681565b60008054604080516323b872dd60e01b81523360048201523060248201526044810186905290516001600160a01b03909216926323b872dd926064808401936020939083900390910190829087803b1580156105c757600080fd5b505af11580156105db573d6000803e3d6000fd5b505050506040513d60208110156105f157600080fd5b505161063d576040805162461bcd60e51b8152602060048201526016602482015275121b5e53585b9859d95c8bd89d5c9b8819985a5b195960521b604482015290519081900360640190fd5b600054604080518481526001600160a01b03848116602083015282513394909116927f47b4128ad231bee46bdb1f8614450b5ffe6eb96340e87519a0c3a8b91ee714ec928290030190a3505056fe486d794d616e616765722f54686520756e6c6f636b206576656e742063616e6e6f7420626520726575736564a265627a7a723158200d1742bb40b80ab7d3e1880d8c2c6c77c321ef3baf2861ea42288e5b31f5831764736f6c63430005110032",
  "source": "pragma solidity 0.5.17;\n\nimport \"./ILINK.sol\";\nimport \"../lib/TokenManager.sol\";\n\ncontract LINKHmyManager {\n    ILINK public hLINK;\n\n    mapping(bytes32 => bool) public usedEvents_;\n\n    event Burned(\n        address indexed token,\n        address indexed sender,\n        uint256 amount,\n        address recipient\n    );\n\n    event Minted(\n        address oneToken,\n        uint256 amount,\n        address recipient,\n        bytes32 receiptId\n    );\n\n    address public wallet;\n    modifier onlyWallet {\n        require(msg.sender == wallet, \"HmyManager/not-authorized\");\n        _;\n    }\n\n    /**\n     * @dev constructor\n     * @param _hLINK harmony token contract address\n     * @param _wallet is the multisig wallet\n     */\n    constructor(ILINK _hLINK, address _wallet) public {\n        hLINK = _hLINK;\n        wallet = _wallet;\n    }\n\n    /**\n     * @dev register token mapping in the token manager\n     * @param tokenManager token manager contract address\n     * @param eLINK ethereum token contract address\n     */\n    function register(address tokenManager, address eLINK) public onlyWallet {\n        TokenManager(tokenManager).registerToken(eLINK, address(hLINK));\n    }\n\n    /**\n     * @dev deregister token mapping in the token manager\n     * @param tokenManager token manager contract address\n     * @param eLINK ethereum token contract address\n     */\n    function deregister(address tokenManager, address eLINK) public onlyWallet {\n        TokenManager(tokenManager).removeToken(eLINK, 10**27);\n    }\n\n    /**\n     * @dev burns tokens on harmony to be unlocked on ethereum\n     * @param amount amount of tokens to burn\n     * @param recipient recipient of the unlock tokens on ethereum\n     */\n    function burnToken(uint256 amount, address recipient) public {\n        require(\n            hLINK.transferFrom(msg.sender, address(this), amount),\n            \"HmyManager/burn failed\"\n        );\n        emit Burned(address(hLINK), msg.sender, amount, recipient);\n    }\n\n    /**\n     * @dev mints tokens corresponding to the tokens locked in the ethereum chain\n     * @param amount amount of tokens for minting\n     * @param recipient recipient of the minted tokens (harmony address)\n     * @param receiptId transaction hash of the lock event on ethereum chain\n     */\n    function mintToken(\n        uint256 amount,\n        address recipient,\n        bytes32 receiptId\n    ) public onlyWallet {\n        require(\n            !usedEvents_[receiptId],\n            \"HmyManager/The unlock event cannot be reused\"\n        );\n        usedEvents_[receiptId] = true;\n        require(hLINK.transfer(recipient, amount), \"HmyManager/mint failed\");\n        emit Minted(address(hLINK), amount, recipient, receiptId);\n    }\n}\n",
  "sourcePath": "g:/bmgalego/subgraphtest/ethhmy-bridge/contracts/link/LINKHmyManager.sol",
  "compiler": {
    "name": "solc",
    "version": "0.5.17+commit.d19bba13.Emscripten.clang"
  },
  "schemaVersion": "3.3.4",
  "updatedAt": "2021-03-30T18:14:45.419Z",
  "devdoc": {
    "methods": {
      "burnToken(uint256,address)": {
        "details": "burns tokens on harmony to be unlocked on ethereum",
        "params": {
          "amount": "amount of tokens to burn",
          "recipient": "recipient of the unlock tokens on ethereum"
        }
      },
      "constructor": {
        "details": "constructor",
        "params": {
          "_hLINK": "harmony token contract address",
          "_wallet": "is the multisig wallet"
        }
      },
      "deregister(address,address)": {
        "details": "deregister token mapping in the token manager",
        "params": {
          "eLINK": "ethereum token contract address",
          "tokenManager": "token manager contract address"
        }
      },
      "mintToken(uint256,address,bytes32)": {
        "details": "mints tokens corresponding to the tokens locked in the ethereum chain",
        "params": {
          "amount": "amount of tokens for minting",
          "receiptId": "transaction hash of the lock event on ethereum chain",
          "recipient": "recipient of the minted tokens (harmony address)"
        }
      },
      "register(address,address)": {
        "details": "register token mapping in the token manager",
        "params": {
          "eLINK": "ethereum token contract address",
          "tokenManager": "token manager contract address"
        }
      }
    }
  },
  "userdoc": {
    "methods": {}
  }
}